{
  "transactions": [
    {
      "hash": "0xca3e6d00ae57f4d89310b661cca8d275890b35d5478cce13f6cd909db9fb0ef7",
      "transactionType": "CALL",
      "contractName": null,
      "contractAddress": "0xef5116bf4b6a157698c2aff675349d01caa27927",
      "function": "handleOps((address,uint256,bytes,bytes,bytes32,uint256,bytes32,bytes,bytes)[],address)",
      "arguments": [
        "[(0x1d6630fca32021aB5068ab646AAc800934AdbC80, 0, 0x, 0xb61d27f6000000000000000000000000d5457c30d3fa8ded4abd8bc4450c55d43aceee2f00000000000000000000000000000000000000000000000000000000000000000000000000000000000000000000000000000000000000000000000000000060000000000000000000000000000000000000000000000000000000000000006423b872dd000000000000000000000000701477467321474712baca6779fe8926528b3c93000000000000000000000000264f7948c23da2233d3458f1b4e2554f0e56c9ca0000000000000000000000000000000000000000000000004563918244f4000000000000000000000000000000000000000000000000000000000000, 0x0000000000000000000000000100000000000000000000000000000001000000, 16777216, 0x0000000000000000000000000000010000000000000000000000000000000100, 0x, 0x3722da2aeb1e45bc22c661479ce1a9057549ae10e4cda10587535d6e3fc84c982409dd8883f27484abe3689d209fb1739593251e9bc69b46543ca593e1553ab41c)]",
        "0x701477467321474712bACA6779FE8926528B3c93"
      ],
      "transaction": {
        "from": "0x701477467321474712baca6779fe8926528b3c93",
        "to": "0xef5116bf4b6a157698c2aff675349d01caa27927",
        "gas": "0x36bdd",
        "value": "0x0",
        "input": "0x765e827f0000000000000000000000000000000000000000000000000000000000000040000000000000000000000000701477467321474712baca6779fe8926528b3c93000000000000000000000000000000000000000000000000000000000000000100000000000000000000000000000000000000000000000000000000000000200000000000000000000000001d6630fca32021ab5068ab646aac800934adbc80000000000000000000000000000000000000000000000000000000000000000000000000000000000000000000000000000000000000000000000000000001200000000000000000000000000000000000000000000000000000000000000140000000000000000000000000010000000000000000000000000000000100000000000000000000000000000000000000000000000000000000000000010000000000000000000000000000000000010000000000000000000000000000000100000000000000000000000000000000000000000000000000000000000000028000000000000000000000000000000000000000000000000000000000000002a000000000000000000000000000000000000000000000000000000000000000000000000000000000000000000000000000000000000000000000000000000104b61d27f6000000000000000000000000d5457c30d3fa8ded4abd8bc4450c55d43aceee2f00000000000000000000000000000000000000000000000000000000000000000000000000000000000000000000000000000000000000000000000000000060000000000000000000000000000000000000000000000000000000000000006423b872dd000000000000000000000000701477467321474712baca6779fe8926528b3c93000000000000000000000000264f7948c23da2233d3458f1b4e2554f0e56c9ca0000000000000000000000000000000000000000000000004563918244f400000000000000000000000000000000000000000000000000000000000000000000000000000000000000000000000000000000000000000000000000000000000000000000000000000000000000000000000000000000000000000000000000000000000000000000000000000000000000000000000000413722da2aeb1e45bc22c661479ce1a9057549ae10e4cda10587535d6e3fc84c982409dd8883f27484abe3689d209fb1739593251e9bc69b46543ca593e1553ab41c00000000000000000000000000000000000000000000000000000000000000",
        "nonce": "0x1d",
        "chainId": "0xaa36a7"
      },
      "additionalContracts": [],
      "isFixedGasLimit": false
    }
  ],
  "receipts": [],
  "libraries": [],
  "pending": [],
  "returns": {},
  "timestamp": 1729321822,
  "chain": 11155111,
  "commit": "7710523"
}